{
    "contractName": "Votacao",
    "abi": [
        {
            "inputs": [
                {
                    "internalType": "string",
                    "name": "_pauta",
                    "type": "string"
                }
            ],
            "stateMutability": "nonpayable",
            "type": "constructor"
        },
        {
            "inputs": [],
            "name": "pauta",
            "outputs": [
                {
                    "internalType": "string",
                    "name": "",
                    "type": "string"
                }
            ],
            "stateMutability": "view",
            "type": "function"
        },
        {
            "inputs": [],
            "name": "sindico",
            "outputs": [
                {
                    "internalType": "address",
                    "name": "",
                    "type": "address"
                }
            ],
            "stateMutability": "view",
            "type": "function"
        },
        {
            "inputs": [
                {
                    "internalType": "enum Votacao.Opcao",
                    "name": "_opcao",
                    "type": "uint8"
                }
            ],
            "name": "verResultado",
            "outputs": [
                {
                    "internalType": "address[]",
                    "name": "",
                    "type": "address[]"
                }
            ],
            "stateMutability": "view",
            "type": "function"
        },
        {
            "inputs": [
                {
                    "internalType": "enum Votacao.Opcao",
                    "name": "_opcao",
                    "type": "uint8"
                }
            ],
            "name": "votar",
            "outputs": [],
            "stateMutability": "nonpayable",
            "type": "function"
        }
    ],
    "bytecode": "608060405234801561001057600080fd5b5060405161069438038061069483398101604081905261002f9161006a565b600080546001600160a01b03191633179055600161004d82826101bc565b505061027b565b634e487b7160e01b600052604160045260246000fd5b6000602080838503121561007d57600080fd5b82516001600160401b038082111561009457600080fd5b818501915085601f8301126100a857600080fd5b8151818111156100ba576100ba610054565b604051601f8201601f19908116603f011681019083821181831017156100e2576100e2610054565b8160405282815288868487010111156100fa57600080fd5b600093505b8284101561011c57848401860151818501870152928501926100ff565b600086848301015280965050505050505092915050565b600181811c9082168061014757607f821691505b60208210810361016757634e487b7160e01b600052602260045260246000fd5b50919050565b601f8211156101b757600081815260208120601f850160051c810160208610156101945750805b601f850160051c820191505b818110156101b3578281556001016101a0565b5050505b505050565b81516001600160401b038111156101d5576101d5610054565b6101e9816101e38454610133565b8461016d565b602080601f83116001811461021e57600084156102065750858301515b600019600386901b1c1916600185901b1785556101b3565b600085815260208120601f198616915b8281101561024d5788860151825594840194600190910190840161022e565b508582101561026b5787850151600019600388901b60f8161c191681555b5050505050600190811b01905550565b61040a8061028a6000396000f3fe608060405234801561001057600080fd5b506004361061004c5760003560e01c806327a659b8146100515780633aa999401461006f57806392dcef091461009a578063d13264e1146100af575b600080fd5b6100596100cf565b60405161006691906102c1565b60405180910390f35b600054610082906001600160a01b031681565b6040516001600160a01b039091168152602001610066565b6100ad6100a836600461030f565b61015d565b005b6100c26100bd36600461030f565b61022a565b6040516100669190610337565b600180546100dc90610384565b80601f016020809104026020016040519081016040528092919081815260200182805461010890610384565b80156101555780601f1061012a57610100808354040283529160200191610155565b820191906000526020600020905b81548152906001019060200180831161013857829003601f168201915b505050505081565b3360009081526003602052604090205460ff16156101b55760405162461bcd60e51b81526020600482015260116024820152704d6f7261646f72206a6120766f746f752160781b604482015260640160405180910390fd5b600260008260038111156101cb576101cb6103be565b60038111156101dc576101dc6103be565b8152602080820192909252604090810160009081208054600181810183559183528483200180546001600160a01b031916339081179091558252600390935220805460ff1916909117905550565b606060026000836003811115610242576102426103be565b6003811115610253576102536103be565b81526020019081526020016000208054806020026020016040519081016040528092919081815260200182805480156102b557602002820191906000526020600020905b81546001600160a01b03168152600190910190602001808311610297575b50505050509050919050565b600060208083528351808285015260005b818110156102ee578581018301518582016040015282016102d2565b506000604082860101526040601f19601f8301168501019250505092915050565b60006020828403121561032157600080fd5b81356004811061033057600080fd5b9392505050565b6020808252825182820181905260009190848201906040850190845b818110156103785783516001600160a01b031683529284019291840191600101610353565b50909695505050505050565b600181811c9082168061039857607f821691505b6020821081036103b857634e487b7160e01b600052602260045260246000fd5b50919050565b634e487b7160e01b600052602160045260246000fdfea2646970667358221220fb9eb882c73d75ee76c5d25bcf3b1f1b2ed1f183a00e6744a1d84353052b7e4364736f6c63430008110033",
    "sourcePath": "c:/Users/muril/OneDrive/Downloads/code/Solidity/Urna-Eletronica/Votacao.sol",
    "compiler": {
        "name": "solc",
        "version": "0.8.17+commit.8df45f5f"
    },
    "functionHashes": {
        "pauta()": "27a659b8",
        "sindico()": "3aa99940",
        "verResultado(uint8)": "d13264e1",
        "votar(uint8)": "92dcef09"
    },
    "gasEstimates": {
        "creation": {
            "codeDepositCost": "206800",
            "executionCost": "infinite",
            "totalCost": "infinite"
        },
        "external": {
            "pauta()": "infinite",
            "sindico()": "2337",
            "verResultado(uint8)": "infinite",
            "votar(uint8)": "75418"
        }
    }
}